:100000000C9403030C9420030C9420030C94200301
:100010000C9420030C9420030C9420030C942003D4
:100020000C9420030C9420030C9433320C9407336B
:100030000C94CA2C0C9420030C9420030C942003E1
:100040000C9420030C9420030C9420030C942003A4
:100050000C9420030C94512D0C9420030C94200339
:100060000C9420030C9420030C9420030C94200384
:100070000C9420030C9420030C9420030C94200374
:100080000C9420030C9420030C9420030C94200364
:100090000C9420030C9420030C9420030C94200354
:1000A0000C9420030C9420030C94200314001A00D9
:1000B0000800150017001C0018000C0012001300A7
:1000C0002A0004001600070009000A000B000D00BA
:1000D0000E000F002D0028001D001B000600190057
:1000E00005001100100036003700E5000000E000B8
:1000F000E300000000002C00000000000000E2000F
:100100002A00000014001A000800150017001C0047
:1001100018000C00120013002A000400160007004B
:1001200009000A000B000D000E000F002D00280032
:100130001D001B000600190005001100100036000C
:100140003700E5000000E000E300000000002C00A4
:10015000000000000000E2002A00000014001A0065
:100160000800150017001C0018000C0012001300F6
:100170002A0004001600070009000A000B000D0009
:100180000E000F002D0028001D001B0006001900A6
:1001900005001100100036003700E5000000E00007
:1001A000E300000000002C00000000000000E2005E
:1001B0002A000000FD377A585A000004E6D6B446FB
:1001C0000200210116000000742FE5A3E001D30016
:1001D000D55D003D8889C65436C3174FE4EFB0871C
:1001E00049EAC6C975D7E641FE90B053D559ED9995
:1001F000082C79FFF9704A3B453BBCAA551D8EDBA4
:1002000034556EA3230701F0673EF167DF44931E68
:100210002686023E8CC7D8314EA4DBF71A45FD5323
:1002200082C4DB1363706031C3B8715EEFAAF1461C
:1002300021D3F0EFF517C71E5DC9F57E0297A834EC
:10024000FDFD7DC0A0A646C9F90099C8FBD998E478
:10025000B75C9A4C6D0E53F4E2973EF690B64E7230
:10026000DF94109E0C84BDC909D1DB83C34648F9D5
:10027000CD56B61C81DD05F56D4DB6E738A19E0D56
:10028000C08C7F413489DA11C154203F5F5C0AF091
:10029000FF845EC05BB2EB5BEB36AC75CF763EA104
:1002A00040F351FA84FCAA0000000000DF3BCE2698
:1002B0009C2884C50001F101D403000046A78B8B64
:1002C000B1C467FB020000000004595A010001009C
:1002D0006C044F1A811A00000200020068044F1AD1
:1002E000811A0000030001006D044F1A811A0000FA
:1002F0000400020052044F1A811A481A0500010036
:100300006E044F1A811A00000600020054044F1AAE
:10031000811A0000070002006A044F1A811A0000C7
:10032000080001006F044F1A811A00000900020042
:1003300056044F1A811A30190A00020058044F1A45
:10034000811A30190B0002005A044F1A811A301911
:100350000C0002005C044F1A811A30190D000200D3
:100360005E044F1A811A30190E00020060044F1A01
:10037000811A30190F00020062044F1A811A3019D5
:100380001000020064044F1A811A30191100020093
:1003900066044F1A811A30191200020070044F1AB5
:1003A000811A00001300020072044F1A811A000023
:1003B0001400010074044F1A811A00001500000097
:1003C00000005519CF1900000000000000000000D7
:1003D0002A2B2800000000000000000000000000A0
:1003E00000000029000000002C1E342021222434AB
:1003F0002627252E362D3738271E1F20212223247D
:1004000025263333362E37381F0405060708090A18
:100410000B0C0D0E0F101112131415161718191AB4
:100420001B1C1D2F3130232D350405060708090A32
:100430000B0C0D0E0F101112131415161718191A94
:100440001B1C1D2F3130354C000000000000000047
:10045000000000000000000000000000000000009C
:100460000000000000000000000000007E0F00D42B
:10047000FFFFFFC7000000781C03760069006100E1
:100480006C003A00660036003400630032006200FF
:10049000330063000000100363006F006F006C0006
:1004A00033003300370000000A036D002E006B009C
:1004B000690000000403090409025B00030100A0B5
:1004C000FA090400000103010100092111010001E2
:1004D000224400070581030800010904010002030A
:1004E00000000009211101000122220007058203FA
:1004F0002000010705030320000109040200010395
:10050000000000092111010001227B00070584037E
:100510002000011201000200000008434D360300D4
:1005200001010203010660FF0961A10109621500D2
:1005300026FF009520750881020963150026FF003B
:10054000952075089102C005010902A101850209E3
:1005500001A1000509190129081500250195087553
:100560000181020501093009311581257F95027548
:1005700008810609381581257F95017508810605D2
:100580000C0A38021581257F950175088106C0C0C7
:1005900005010980A101850319012AB7001501266B
:1005A000B700950175108100C0050C0901A10185F6
:1005B0000419012AA002150126A0029501751081D7
:1005C00000C005010906A101050719E029E715008A
:1005D00025019508750181029501750881010507BE
:1005E000190029FF150026FF0095067508810005F2
:1005F0000819012905150025019505750191029538
:100600000175039101C011241FBECFEFDAE0DEBFF8
:10061000CDBF11E0A0E0B1E0E0EAFBE602C005904A
:100620000D92A43BB107D9F724E0A4EBB1E001C0DF
:100630001D92A738B207E1F70E9415150C94AA3550
:100640000C9400008330B8F46430A8F44B3098F474
:1006500050E09BE0699F400D511D1124FA019CE27E
:10066000899FE00DF11D1124EE0FFF1FE455FF4F90
:1006700085919491089581E090E008959C013A95C8
:1006800021153F4150F5FC01EE27F170BC016627B2
:100690007270AC01442754709C012227387094FF7B
:1006A0000EC080E1EF2B09F480E0672B09F0806237
:1006B000452B09F08064232B89F08068089581E040
:1006C000EF2B09F480E0672B09F08260452B09F0DD
:1006D0008460232B19F08860089580E00895CF93FB
:1006E000DF93EB010E943E03FE010995DF91CF915C
:1006F0000895CF93DF93EC01805E9109089720F075
:100700006DE276E0209711F46FE176E0CE010E9471
:100710006F038C2F0E947E05DF91CF910895CF93B8
:10072000DF93EC010E94C705CE01805E9109089716
:1007300020F064E376E0209711F466E276E0CE01E3
:100740000E946F03DF91CF91089581E008950E9488
:10075000A503089581E008950E94A50308950E94CD
:10076000AC03089508950E94B2030895A6E0B0E096
:10077000ECEBF3E00C94F23449835A839E8330917E
:10078000BB0189819A8131111AC03E81332399F0CE
:10079000222389F00E94180A182F682F89819A81D4
:1007A0000E94F40969817A81812F0E949E12269607
:1007B000E3E00C940E350E94060A182FF3CF0E9436
:1007C000180A69817A81F1CFFC01262F87819085F3
:1007D000009741F4408151816281738184819581C8
:1007E0000E94B60308950F931F93CF93DF93EC01FC
:1007F00061E00E94E4038C01BE010E94A7038823EC
:1008000051F0BE01C8010E941D208170DF91CF917F
:100810001F910F91089580E0F8CFCF93DF93EC0103
:1008200060E00E94E403BE010E94B303DF91CF9118
:10083000089581E008950E9419040895CF93C82F68
:100840000E9451068C2F0E941B042FEF84E39CE032
:10085000215080409040E1F700C00000CF91089502
:1008600081E00E941E040E94752D089580E00E9480
:100870001E040E94862D08950F931F93CF93DF933C
:10088000EC018B010E94CD28882329F061E0C8018A
:100890000E94E403EC01B801CE010E94412A8111BB
:1008A00006C080E0DF91CF911F910F910895B801AC
:1008B000CE010E94E2188823A1F3B801CE010E9464
:1008C000AF03882371F3B801CE010E94F528882375
:1008D00041F3B801CE010E94351D882311F3B80100
:1008E000CE010E9493298823E1F2F80185818823B3
:1008F00061F0C330FCE7DF07E9F058F4C115ECE71D
:10090000DE07A9F0C130DC47B9F0C8010E94AA0394
:10091000C9CFCB358CE7D807A9F0CC35ECE7DE079B
:1009200071F0CA35DC4789F70E94CC0FEECF0E94E8
:100930003004B7CF0E94D40F0E943604B2CF0E9479
:10094000C20FE3CF0E94D00FE0CFCF93DF93EC0133
:1009500061E00E94E403BE010E943C04DF91CF915C
:1009600008950E94A62C0E94E90408950E94ED04B7
:100970000E94AB2C0895982F92959F7011F0892FAB
:1009800094E0282F2695269511F09E5F822F86955C
:1009900009F09F5F892F0895089581E008950895D3
:1009A000CF93DF93D82F0E94CD04C82F882319F04E
:1009B0008D2F0E94CF048C2FDF91CF910895089541
:1009C000CF93C82F0E94CC048C2F0E94D004CF91CB
:1009D000089580E00E94E00408950E947C2B0E940C
:1009E000E0040895CF930E947C2BC82F8091B6011C
:1009F0008C1779F0C093B6010E94362D6093B70131
:100A00007093B8018093B9019093BA018C2F0E9422
:100A1000E004CF910895019708F40895EFE9FFE00D
:100A20003197F1F700C00000F6CFAFE0B0E0EBE1A6
:100A3000F5E00C94F1344A875B876C877D878E875D
:100A40009F87882349F08091BC019091BD01019658
:100A50009093BD018093BC018F8581110E94A90EE6
:100A60001F821886198686E0FE013A96DE011196ED
:100A700001900D928A95E1F78091EF0382FF12C0F9
:100A80008091540490915504892B61F00E94650E69
:100A9000882319F082E00E94960F0E94410E811176
:100AA0000E94160F8D8181110FC009811A812B813F
:100AB0003C814D815E816F81788589850E94B50D6D
:100AC0002F96E4E00C940D35CE0101960E94F303BD
:100AD0008111EBCFF5CFFC012481213021F48081FD
:100AE00091810E94450A0895662329F00E94662597
:100AF0000E944B2608950E94D225FACFCF93C82F8B
:100B0000882399F08CEF8C0F813A88F48C2F0E9407
:100B1000012C882329F08C2F0E94442C0E94670FFF
:100B20008C2F0E943C2C0E94670FCF91089580E289
:100B30008C0F883048F4C77081E001C0880FCA95D7
:100B4000EAF70E94890EEFCFEBE5EC0FE33040F4BB
:100B5000F0E0E65AFE4F808190E00E94A22BE5CFA4
:100B6000E8E5EC0FEB3150F4F0E0EE0FFF1FEC5D29
:100B7000FE4F808191810E94C72BD7CF83E38C0FDA
:100B8000833198F661E08C2F0E947405CECF8823C4
:100B900081F19CEF980F913A28F40E94442C0E9416
:100BA000670F089590E2980F983050F4877091E0A5
:100BB00001C0990F8A95EAF7892F0E948F0EEFCF17
:100BC0009BE5980F933028F490E080E00E94A22BE0
:100BD000089598E5980F9B3128F490E080E00E94FA
:100BE000C72B089593E3980F933118F460E00E94A7
:100BF000740508951F93CF93DF93182FEB010E9484
:100C00007E05209739F4812F0E94C705DF91CF918F
:100C10001F9108958FE99FE00197F1F700C0000050
:100C20002197EFCF6091720470917304893321F0A2
:100C300060917004709171040E94FA0508958823F0
:100C400021F00E94890E0E94670F0895882321F0E9
:100C50000E948F0E0E94670F0895882321F00E9442
:100C60009C0E0E94670F0895882321F00E94A20E17
:100C70000E94670F089590E080E00E94A22B90E010
:100C800080E00E94C72B0E94A90E0E94670F0E945D
:100C900067260E944B2608950E944C2C0E943B061A
:100CA00008950E94960E0E944C06089592959F709A
:100CB000963091F058F4925F9F70923058F4803FD4
:100CC00019F030F4883E30F481E008959A5FF4CF53
:100CD000843FD1F380E00895883EB0F3813FD1F79F
:100CE000F3CFFC018481882371F087819085009780
:100CF00029F00E9480110E945606089580819181FA
:100D00000E94450AF8CF80E00895B0E0A0E0EBE84B
:100D1000F6E00C94EC346C01EB01FC011581F680DB
:100D2000F2949FE0F9220E947F0EE82E8823F9F0CA
:100D3000E12E1123E1F08D2F807F803461F080E27D
:100D40008C0F883010F18D2F807E803221F4C230DC
:100D5000E0F0FF20D1F08091EF0382FF16C082E027
:100D60000E94960F0E947F0E91E0E82EE926BD2E8C
:100D7000B2948FE0B822FBE0FB1508F463C0EB2DC2
:100D8000F0E0E455FA4C0C94D634E12CF0CF0D2F62
:100D90000F708D2F807F11F00295007F112399F045
:100DA000002359F080E28C0F883010F0C11107C089
:100DB000802F0E94890E0E94670F8C2F3BC0802FCE
:100DC0000E949C0EF8CF8C2F0E94C7050023D1F102
:100DD00080E28C0F883010F0C11104C0802F0E9477
:100DE0008F0E03C0802F0E94A20E0E94670F2AC0A0
:100DF0000D2F0F708D2F807F803211F00295007FB4
:100E0000CC2351F0C13009F480C0112309F48CC007
:100E1000FF2009F445C0D1CF8091EF0382FD3CC093
:100E2000112359F0002329F0802F0E94890E0E947F
:100E3000670F80E00E947E0505C080E00E94C70524
:100E40000111CCCFEB2DE850FF0B349720F40E941A
:100E50007C2B0E94E004CE010E945606811189C1BC
:100E60001092BD011092BC01EE2089F00E94610E2B
:100E700080FD0DC0F60115820E945B0E0E9468097C
:100E8000C6010E94FA080E945B0E0E947409CDB749
:100E9000DEB7E9E00C9408351123E9F0F11004C045
:100EA000802F0E941F06CECF21E0F21204C0802FB7
:100EB0000E94CF0EC7CF80916E04823018F28F113E
:100EC000C1CF802F0E941F06802F0E94E60E802F28
:100ED0000E94B30EB7CFF1100AC0802F0E942606E1
:100EE000802F0E94E60E802F0E94BF0EABCF809114
:100EF0006E04823008F4A6CF31E0F312A3CF0E9433
:100F0000860E802309F49ECFE8CF809174041123CC
:100F100021F08F1508F496CFC3CFF81608F092CFC2
:100F2000802F0E9426068ECFFF20D1F3809172047D
:100F300090917304C93321F08091700490917104F1
:100F40000E940B058C2F0E94C7057CCF8D2F8695A4
:100F50008695837061F0813009F074CFCE01937073
:100F6000111102C080E090E00E94C72B6BCFCE0130
:100F70009370111102C080E090E00E94A22B62CF1A
:100F8000612F8C2F0E9474055DCF8D2F837081F5AA
:100F9000111158CF4C2F429546954770440F440F7E
:100FA0008C2F8F70042E01C0880F0A94EAF72C2F23
:100FB0002071C4FF07C02FE030E001C0220F4A9526
:100FC000EAF720959D2F969596959370822B9230F7
:100FD00049F058F4913019F00E94440933CF0E942F
:100FE0003E0930CF0E944A092DCF0E943B092ACFEB
:100FF0008695112311F08D2F8170882309F422CF5B
:101000004C2F429546954770440F440F8C2F8F709C
:10101000042E01C0880F0A94EAF72C2F2071C4FF18
:1010200007C02FE030E001C0220F4A95EAF7209573
:101030009D2F969596959370822B923049F058F497
:10104000913019F00E949309FDCE0E948D09FACECD
:101050000E949909F7CE0E945609F4CE0D2F0F7009
:10106000112329F0802F0E9468098C2F1ACF8C2F12
:101070000E942606802F0E947409E4CEC23F51F1DF
:1010800060F4C03FB9F0C13F81F0112309F46CC096
:10109000F11093CE8D2F8F7121C0C33F11F1C43F4A
:1010A000A1F78091EF0382FD26C08D2F8F71112350
:1010B00011F314C080917404112341F0F81608F064
:1010C000C1CE8D2F8F710E948109BCCE8F1508F47F
:1010D000B9CEF7CF8D2F8F711111CDCF0E94680936
:1010E000B1CE112329F08D2F8F710E945F09AACEF6
:1010F0000E945B09A7CE80916E04823010F111230B
:10110000B1F00E94610E843041F40E948C0F8D2F4B
:101110008F710E947409E12C95CE80916E0463E07A
:10112000F816C8F78D2F8F710E946E0FF4CFF81646
:1011300020F00E948C0F64E0F5CF81E00E94960FB2
:10114000EACF112331F063E08D2F8F710E946E0F73
:1011500079CE81E00E94960F81E08F1508F072CE63
:1011600082E00E94960F6ECEF110E0CE8D2F8F712F
:1011700082CF112319F0F11073CE76CEF11070CE1C
:1011800020E0F601408151816281738184819581E3
:101190000E94B603B6010E949B1B882309F460CE0F
:1011A0008091BC019091BD01029709F059CE8C2F1E
:1011B0000E94120655CE0F931F93CF93DF93EC013D
:1011C0008F819885009781F00E9480118C010E9488
:1011D0009F090E943A09B801CE010E948506DF915D
:1011E000CF911F910F910895688179818D810E941F
:1011F000500AECCFCF93DF93EC018C81882399F0D8
:10120000CE010E94A504811111C00E947F0E882387
:1012100051F08D81882339F08091EF0382FF03C064
:1012200082E00E94960FDF91CF910895CE010E9437
:10123000DB08CE010E940D04F6CFA6E0B0E0E3E2A9
:10124000F9E00C94F3342696E2E00C940F35A9E013
:10125000B0E0EDE2F9E00C94F1342996E4E00C946E
:101260000D3508950E94310908950E943209809336
:10127000D101089508950E94350908959091D101F2
:10128000892B0E94350908959091D10189230E94EC
:10129000350908959091D10189270E943509089553
:1012A0000E94310908950E94500908950E9453092F
:1012B0008093D001089580E00E945609089591E03E
:1012C00001C0990F8A95EAF7892F0E94560908955F
:1012D00021E030E001C0220F8A95EAF78091D00129
:1012E000822B0E945609089521E030E001C0220FB0
:1012F0008A95EAF720958091D00182230E945609B1
:10130000089521E030E001C0220F8A95EAF780912C
:10131000D00182270E94560908959091D001892B0F
:101320000E94560908959091D00189230E94560980
:1013300008959091D00189270E9456090895089533
:10134000262F277091E001C0990F2A95EAF723E034
:10135000769567952A95E1F7FB01EE0FFF1FE60FE3
:10136000F71FE40FF51F50E040E0682F70E0819117
:10137000DF0111979B01042E02C0369527950A9430
:10138000E2F7217021952827292328272C934F5FE6
:101390005F4F4330510559F70895A82FA77023E0F8
:1013A000969587952A95E1F7FC01EE0FFF1FE80F50
:1013B000F91FE60FF71F50E040E080E0219130E098
:1013C0000A2E02C0369527950A94E2F7217033273A
:1013D000042E01C0220F0A94EAF7822B4F5F5F4F61
:1013E0004330510559F70895262F943070F48B300F
:1013F00060F4682F70E08BE0989F600D711D1124E0
:101400004EEB51E0822F0E94A0090895292F9430BD
:1014100068F48B3058F490E06EEB71E03BE0239F72
:10142000800D911D11240E94CD09089580E008953A
:10143000CF92DF92FF920F931F93CF93DF936C01B4
:101440000091D0018091D101082BC3E0D0E010E0E1
:10145000FC2EC8010C2E02C0959587950A94E2F7E0
:1014600080FD0CC02197A0F7F12C8F2DDF91CF913B
:101470001F910F91FF90DF90CF900895B6018C2FB0
:101480000E94B912019771F3F0CFCF93DF93EC0173
:101490000E94180ABE010E94B912DF91CF910895EF
:1014A0001F93CF93DF93EB019091BB01992339F008
:1014B000CB010E94450ADF91CF911F9108958823A7
:1014C00069F0CB010E94180A182F682FCE010E94E4
:1014D000F409BE01812F0E94B912EDCFCB010E9409
:1014E000060A182FF6CFE1E0F0E0DF0102C0AA0FF4
:1014F000BB1F6A95E2F7BD01DF0102C0AA0FBB1F47
:101500004A95E2F76A2B01C0EE0F2A95EAF7962F6B
:101510009823961302C08E2B0895E0958E2308958C
:10152000242F462F682F8091D0010E94730A0E94B9
:1015300056090895FF920F931F93CF93DF93C091A5
:10154000D20189E0F82E8091D3018C1305C0CDB76C
:10155000DEB7E5E00C940C35D0E0FC9EF001FD9E7A
:10156000F00D1124EC52FE4F008111812281338154
:10157000448155816681778180850E942709219663
:10158000C770E1CF0F931F9300911C0210911D02B1
:1015900020911E0230911F024091200250912102A1
:1015A0006091220270912302809124020E942709F7
:1015B0001F910F910895482F2091D2019091D3014E
:1015C00059E0291302C080E0089530E0529FF001F5
:1015D000539FF00D1124EC52FE4F8181681306C019
:1015E0008081481303C085818111EECF2F5F3F4F6B
:1015F0002770E7CFB0E0A0E0E0E0FBE00C94EE3431
:1016000080912202807F09F054C0809121028823BA
:1016100009F44FC0E091D20189E0D82E8091D30126
:101620008E1709F446C00E2F10E0ED9DF001112435
:10163000EC52FE4F8481882309F440C0D09EE00123
:10164000D19ED00D1124FE01EC52FE4F918180916C
:101650001D02981333C0908180911C0298132EC0F4
:10166000858181112BC0E280F38080911E029091D0
:101670001F02E81AF90A60E08CE192E00E94E4039C
:101680006CE172E00E94C218E816F906B8F4809185
:1016900022028F70806180932202C652DE4F8881C1
:1016A0008F70806188838CE192E00E94FA080E942A
:1016B0009A0ACDB7DEB7E7E00C940A35F801319607
:1016C000E770ACCF2F923F925F926F927F928F9292
:1016D0009F92AF92BF92CF92DF92EF92FF920F93C1
:1016E0001F93CF93DF93CDB7DEB768970FB6F8940B
:1016F000DEBF0FBECDBF8C0186E0F801DE01539640
:1017000001900D928A95E1F7D80114967C90149778
:101710001596EC908CE1282E82E0382E80912002E4
:1017200081113AC071101BC0FF24F3948F2D68966D
:101730000FB6F894DEBF0FBECDBFDF91CF911F91E2
:101740000F91FF90EF90DF90CF90BF90AF909F9060
:101750008F907F906F905F903F902F900895EE2034
:10176000B9F0C8010E947106F82E882389F089E03B
:10177000F801ACE1B2E001900D928A95E1F78CE1BD
:1017800092E00E946B050E94FA0A0E94C20ACECF24
:10179000C8010E94FA08C8CFF80160805180C28059
:1017A000D38060E08CE192E00E94E4035C01F09061
:1017B000210280911E0290911F02FF2009F433C183
:1017C0004601881A990A60E08CE192E00E94E403E5
:1017D0006CE172E00E94C2188816990608F0BEC03B
:1017E000772009F4A1CF80912202382F307F2091F9
:1017F0001D02D80111969C91119731115CC02913DB
:1018000021C020911C029C9129131CC040912302ED
:101810005091240217962D913C914217530791F451
:10182000E11095C18F708061809322020E94C20AEC
:101830008CE192E00E94FA0880912202F8018683EE
:10184000F12C74CFE11083C1652D862D0E94DB0A37
:10185000882309F45BC16CE172E0C5010E94901B12
:10186000882309F453C18CE192E00E94FA0889E0D0
:10187000ECE1F2E0DF011D928A95E9F70E94C20ACD
:10188000DFCF2A5F2F70223078F0C8010E94FA085B
:10189000EF2C5BC1992319F0882309F456C1805EAF
:1018A000883008F452C1F1CF803F08F44EC1815F07
:1018B000833058F74AC1291320C020911C029C9103
:1018C00029131BC0409123025091240217962D9199
:1018D0003C9118974217530781F4E1100EC01696F9
:1018E0008C93C8010E94FA0889E0F801ACE1B2E0EB
:1018F00001900D928A95E1F748CFC8010E947106C8
:10190000882309F445CFEE2009F442CF80912202CA
:101910008032B8F020911C0230911D023B872A874B
:10192000DD86CC86909120029E871F86888B8091D1
:101930002302909124029A8B898BCE010A960E94F1
:10194000FA0889E0F801ACE1B2E001900D928A95C5
:10195000E1F70E94FA0A0E94C20AE6CE80912202B2
:10196000982F907FA1F46C2DDE8ACD8A462D552DBF
:101970007E89872D9E2D0E941D098CE192E00E9498
:10198000FA0889E0F10111928A95E9F777CF77207B
:1019900009F4CACE20911D02D80111969C9111978D
:1019A00029131DC020911C029C91291318C040913D
:1019B00023025091240217962D913C9118974217BB
:1019C000530769F4E1100BC016968C93C8010E946E
:1019D000FA0889E0F10111928A95E9F7A7CEC801CA
:1019E0000E947106882309F4D3CEEE2009F4D0CEEC
:1019F00080912202803208F4A4CF20911C02309101
:101A00001D023A832983DC82CB82909120029D8340
:101A10001E828F8380912302909124029987888768
:101A2000CE0101968CCF5601A81AB90A60E08CE16C
:101A300092E00E94E4036CE172E00E94C218A816D2
:101A4000B90608F053C0772009F46ECEFE2CEE20C4
:101A500009F49ECE90911D02D80111968C91119798
:101A6000981336C090911C028C91981331C020912C
:101A700023023091240217968D919C9128173907E3
:101A800039F580911E0290911F02C81AD90AB8EC4C
:101A9000CB16D104A0F49091220290FD10C0907F4B
:101AA00071F080912202F8018683903F09F419CFEA
:101AB000982F907F905F8F70892B868312CF89E05B
:101AC000F801ACE1B2E001900D928A95E1F72ECEDB
:101AD000C8010E947106811134CF80912202816079
:101AE00080932202C8010E94FA0820CE6C2DDE8A63
:101AF000CD8A462D552D7E89872D9E2D0E941D094C
:101B000089E0D1011D928A95E9F73FCE652D862D9A
:101B10000E94DB0AE82E811193CE6B8A5C8A8B8946
:101B20009C890E94450A292F22952F70243008F0A5
:101B3000A8CE9F70223008F4ADCE992309F4AFCE21
:101B4000F8019681907F09F0AACEFE2CEFCD80910E
:101B500022028160809322026CE172E0C5010E9442
:101B6000941B882309F46CCE7ECEA2E1B0E0EBEBAF
:101B7000FDE00C94F0340A871B872C873D874E8745
:101B80005F87688B798B8A8BCE010A960E94620BE5
:101B90008823C9F04E85442351F00A851B852C8586
:101BA0003D855F85688979898A890E94270989E04E
:101BB000F82E8091D2019091D30189133DC0629695
:101BC000E5E00C940C3589E0FE013A96DE011196B1
:101BD00001900D928A95E1F78E85882341F320913B
:101BE000D30130E0C9010196877099274091D20155
:101BF0004817190699F099E0929FD001939FB00D74
:101C00001124AC52BE4FFE01319601900D929A956F
:101C1000E1F78093D3010E949A0AC9CF0E9451062E
:101C20001092D3011092D20189E0ECE1F2E0DF01E1
:101C30001D928A95E9F7BBCF8F9DC00111248C526C
:101C40009E4F0E94620B882309F4B9CFE091D20124
:101C5000FE9EF0011124EC52FE4F00811181228181
:101C60003381448155816681778180850E9427096F
:101C70008091D20190E00196877099278093D201DC
:101C800098CF8091540490915504892B89F00E943B
:101C90002A2D2091300230913102AC01421B530BAE
:101CA00081E020915404309155044217530708F401
:101CB00080E08170089580912F02869586958695A3
:101CC000089580912F02877008950E942A2D2091F7
:101CD0002D0230912E02821B930B209154043091DF
:101CE00055048217930748F080912F0282FB8827C2
:101CF00080F991E089278170089580E0FCCF909170
:101D00002F02977081E009F480E0089580913D02F0
:101D1000089590913D02892B80933D02089580950E
:101D200090913D02982390933D02089510923D02B8
:101D3000089580913C02089590913C02892B8093F4
:101D40003C020895809590913C02982390933C0228
:101D5000089510923C0208958091330208950895E9
:101D60000E94AF0E089590913202292F2823281740
:101D700029F0892B809332020E94B00E0895909131
:101D80003202292F282331F0809589238093320253
:101D90000E94B00E089508950E94CB0E0895CF932F
:101DA000C82F809133028C238C1771F00E942A2D4A
:101DB0009093310280933002809133028C2B809378
:101DC00033028C2F0E94CC0ECF9108959091330254
:101DD000292F282381F0809589238093330288233B
:101DE00059F00E942A2D9093310280933002809105
:101DF00033020E94CC0E089590E080E0F4CFCF93A0
:101E0000C82F8091EF0382FF0FC0809133028C179F
:101E100059F00E942A2D9093310280933002C09392
:101E200033028C2F0E94CC0ECF9108958091330203
:101E3000882349F01092330210923102109230023E
:101E400080E00E94CC0E08950F931F93CF93DF93F1
:101E50000091000110910101C0913D0280913C026E
:101E6000C82B80913302882399F08091540490917B
:101E70005504892B29F00E94410E81110E94160FF2
:101E800080913302C82B0E94EC2B81110E94160F07
:101E9000F801C083C0910001D091010148E050E0F9
:101EA00065E272E0CE010E942335892B59F088E06B
:101EB000FE01A5E2B2E001900D928A95E1F7CE0114
:101EC0000E94892BDF91CF911F910F9108950E945D
:101ED000240F089508950E946A0F08959091EF03CA
:101EE00092FF17C098E0899F90011124622B6093A4
:101EF0002F020E9468090E942A2D90932E0280933F
:101F00002D0280912F028695869586950E946B0FF3
:101F100008950E946809089510922F0210922E02CF
:101F200010922D0280E00E946B0F089590912F0275
:101F30008095892380932F02282F277069F48917B1
:101F400059F09091EF0392FF07C08695869586958C
:101F50000E9474090E948C0F08959091EF0392FBE8
:101F6000222720F9281769F080FB92F99093EF035C
:101F70008091EE039091EF030E94F60F82E00E94A1
:101F8000960F08958091EF0382FB882780F991E0F6
:101F900089270E94AD0F089581E00E94AD0F08953A
:101FA00080E00E94AD0F08956FEF7FEF90E080E03A
:101FB0000E948C35089590E080E00E945835853E5F
:101FC0009E4F19F40E94DC29089580E0089582E074
:101FD00090E00E945035089583E090E00E945035D3
:101FE000089584E090E00E9458350895BC0184E093
:101FF00090E00E948C350895AB01BC018FE090E029
:102000000E9480350895AB01BC0183E190E00E94FD
:102010008035089560E070E0CB010E9403100895C0
:1020200060E070E0CB010E94FC0F0E940A1008954E
:10203000A8E0B0E0EEE1F0E10C94F33465EE7EEF61
:1020400090E080E00E948C3560E082E090E00E94A9
:102050006E3581E08093D10161E083E090E00E94E1
:102060006E3560E074E184E090E00E948C3560E0C1
:1020700086E090E00E946E3560E087E090E00E948C
:102080006E3540E050E0BA0188E090E00E94803573
:1020900060E083E290E00E946E3560E08CE090E0CA
:1020A0000E946E3560E08DE090E00E946E351982EE
:1020B0001A821B821C821D821E821F82188648E0A3
:1020C00050E067E170E0CE0101960E945E3540E08D
:1020D00050E0BA018FE190E00E94803580E00E94DC
:1020E000F5290E94242A0E9410102896E2E00C9400
:1020F0000F350E9418100895A6E0B0E0E2E8F0E184
:102100000C94F1340E942A2D8C0180913E02909112
:102110003F028017910781F019821A820E942A2DAE
:10212000682F49815A81792F80E090E00E9415053F
:1021300010933F0200933E022696E4E00C940D3586
:102140000E94362D60934C0270934D0280934E0294
:1021500090934F02609348027093490280934A0221
:1021600090934B020895089508950E94B310089526
:1021700008950E94B81008958FEA93E10E942C15EB
:102180000E94AA150E949C1A0E94B4100E94B510C9
:10219000089581E008950E94C91008950E94C91011
:1021A0000895089508950E94D1100E94D2100895B4
:1021B0000E94DB0F811102C00E9479100E94E70F7C
:1021C000809350020E94F10F9093EF038093EE03EF
:1021D0000E94671E0E94EC0F0E943B098091D00173
:1021E0000E94530908950E94212D0E94342A0E94C2
:1021F00085140E94D8100E94DF040E94B91008952F
:102200000E9457290E94D61F0E94FA1C0895A6E03A
:10221000B0E0EDE0F1E10C94E7340E94CB108111C5
:102220000CC00E947C100E9400110E9489260E940E
:10223000F2042696EEE00C9403350E949B1420E4F1
:10224000822E22E0922E640110E0F601E190F190DE
:102250006F01812F0E94CF131F5F143009F44BC010
:10226000E816F90691F38091500281FD0E94D8137F
:102270000E94CE10782E10E066246394812F0E9475
:10228000CF137C01F401A190B1904F018A159B05F9
:1022900061F1A826BF2400E0CC24C394D12CC50151
:1022A0008C219D21892BC1F07720B1F009831A83FD
:1022B0000E942A2D9C838B836D8221E0C7018C2193
:1022C0009D21892B09F420E049815A816B817C8111
:1022D0008D81922F0E9415050F5FCC0CDD1C0B30F9
:1022E000F1F6F4013297F182E0821F5F143031F68B
:1022F0000E94A01098CFE816F90609F0B4CF91CF4C
:102300001F93CF93DF930E94BE12EC01C11580E5AD
:10231000D807F0F5C11580E4D80708F09CC0C03E8E
:10232000D10520F5CD3CD10508F082C0C83AD105D1
:1023300078F4C53AD10508F073C0C130D10519F160
:10234000209709F1C430D105F0F4D0E0C0E01BC003
:10235000C33CD105D0F7C85AD0E0CC0FDD1FC35A1B
:10236000DE4F0990D881C02DD4640DC0C11580E224
:10237000D80708F0D1C0C11581E0D80708F05AC0CD
:10238000C83ED10510F7CE01DF91CF911F9108957E
:10239000C03682E5D80718F5C03482E5D80708F0C2
:1023A0006BC0C03282E5D80708F05FC0C11582E576
:1023B000D80708F497C02C2F2695269580E2289FF1
:1023C000900111248C2F8370C1E0D0E002C0CC0FAB
:1023D000DD1F8A95E2F7C22BD32BDD68D4CFC03A3C
:1023E00082E5D80760F4C03882E5D80708F459C000
:1023F000CF71D0E0DC2FCC27C46FD06AC4CFC03CF3
:1024000082E5D80708F462C0C03E82E5D80708F02C
:102410009CCFDC2FCC27CC27DF71C06FD06AB3CF25
:10242000C55AD0E0CD56DE4FC881D0E0D064ABCFE6
:10243000D065A9CF8D2F0E946013182FCE01992748
:102440000E94BE12C12FD0E0DC2FCC27CC27DF7139
:10245000C82BD92B98CFCE0199270E94BE12CC272A
:10246000DF70C82BD92BD06A8ECFCF71D0E0DC2F94
:10247000CC27C16FD06A87CF2C2F26952695277041
:1024800080E2289F900111248C2F8370C1E0D0E05E
:1024900002C0CC0FDD1F8A95E2F7C22BD32BDC687C
:1024A00072CF2C2F26952695277080E2289F9001C9
:1024B00011248C2F8370C1E0D0E002C0CC0FDD1F4F
:1024C0008A95E2F7C22BD32BDA685DCF8C2F8F7100
:1024D0000E946013C82FD0E0DC2FCC27CC27DF71FF
:1024E000D06251CF8C2F8F710E94601355E0D6952A
:1024F000C7955A95E1F7CF70D0E0DC2FCC27282F75
:1025000030E084FF05C044E0220F331F4A95E1F715
:10251000C22BD32BD06937CF8D2F8F710E946013C0
:10252000182FCE0199270E94BE12C12FD0E0DC2FB8
:10253000CC27CC27DF71C82BD92BD2CF462F2091A7
:10254000220330912303232B89F4703F39F4603F39
:1025500069F480915004909151040895743030F4DE
:102560006B3020F4672F0E949523089590E080E05F
:1025700008950E949E120E9480110895823891054C
:10258000B9F1B0F48133910509F47DC048F4893282
:10259000910509F46DC08A32910509F47BC0089554
:1025A0008533910509F45FC08933910509F10895D8
:1025B000833E9105D9F138F4803E910529F1823EA0
:1025C000910579F10895863E9105D9F1873E9105EF
:1025D00009F43EC0843E910541F52091EF0321FFAF
:1025E00024C08091EE0384FD19C087EE90E0089529
:1025F0002091EE03237009F05AC02091EF0323FFCE
:1026000014C089E290E008952091EE0320FD38C0C7
:102610003091EF0330FF09C024FF43C090E080E019
:1026200008952091EE0322FDF7CF08952091EE0347
:1026300022FD3AC03091EF0330FD39C024FFF5CFC1
:10264000EDCF2091EE0323FFF0CF24FDE7CFCDCFD8
:102650002091EE0323FD2EC03091EF0331FFEECF2A
:1026600084EE90E008952091EE0325FFDECFC9CFE0
:102670002091EE0325FD21C02091EF0323FFD5CF4C
:1026800089E390E0D2CF2091EE0326FFCECF8AE2FD
:1026900090E008952091EE0326FFC7CF81E390E0FC
:1026A000089583EE90E0089582EE90E0089580EE24
:1026B00090E0089586EE90E0089585E390E0089517
:1026C0009091EE0392FF10C041E0282F2471243036
:1026D00009F040E031E0282F2871283009F030E07F
:1026E000431711F02CE0822793FF10C041E0282F00
:1026F0002471243109F040E031E0282F287128317D
:1027000009F030E0431711F02CE082273091EF03FD
:1027100030FF10C051E0282F2171213009F050E026
:1027200041E0282F2871283009F040E0541711F0BB
:1027300029E0822731FF10C041E0282F217121318B
:1027400009F040E031E0282F2871283109F030E00D
:10275000431711F029E0822794FD877E089580E0D9
:10276000089508950E94B113089508950E94B51325
:102770000895E82FF0E0EE0FFF1FE850FC4F21E036
:1027800030E002C0220F331F6A95E2F78081918109
:102790002823392381E0232B09F480E00895E82FD2
:1027A000F0E0EE0FFF1FE850FC4F8081918108950B
:1027B000089580EA8A95F1F7089500C008950E946F
:1027C000D9130895F894E82FE295EF70F0E031A165
:1027D000282F2F7081E090E001C0880F2A95EAF73A
:1027E000982F9095932391A392A1892B82A37894FB
:1027F0000895CF93DF9381E90E94E21386EF0E9450
:10280000E21385EF0E94E21384EF0E94E213C6E90F
:10281000D1E089918F3F11F00E94E21381E0C13A2B
:10282000D807B9F7DF91CF910895AF92BF92DF92A9
:10283000EF92FF920F931F93CF93DF938C01D62ECD
:10284000C62FD0E0CE018F559E4F7C01FC01208128
:102850002F3F09F44DC0F894E22FE295EF70F0E0BD
:1028600031A12F7081E090E001C0880F2A95EAF72E
:10287000932F982B91A392A18095892382A378947A
:102880000E94DD13E6E9F1E041EA51E021E030E0A9
:10289000B12CA12C61916F3FA9F1A62FA295AF7029
:1028A000B0E090968C9190E06F7002C095958795FE
:1028B0006A95E2F780FD26C0C901A82AB92A220F2D
:1028C000331F4E175F0731F7F70180818F3F11F0FB
:1028D0000E94E21361E0A114B10409F460E08D2DBF
:1028E0000E94DF13CC0FDD1FC00FD11FB982A88259
:1028F000DF91CF911F910F91FF90EF90DF90BF90EC
:10290000AF90089590E080E0D8CF0E94F91388E05E
:10291000E8EFF3E0DF01982F1D929A95E9F7E0EFD9
:10292000F3E0DF011D928A95E9F784E00E94D61456
:102930000E94B2130895A8E0B0E0E1EAF4E10C943B
:10294000F0348E010F5F1F4F88E0F80111928A95D5
:10295000E9F7F12C6F2DC8010E941514F394F4E0EF
:10296000FF12F8CF48E050E0B80180EF93E00E94FA
:10297000233521E0009709F420E0892B41F088E01D
:10298000F801A0EFB3E001900D928A95E1F744E0E1
:1029900068EF73E080EF93E00E94D714182F0E9435
:1029A000B613812F2896E5E00C940C350895B0E01D
:1029B000A0E0EDEDF4E10C94ED346C017B01042F0B
:1029C000C22F222379F081E0809353020E942A2DA6
:1029D000909352028093510280E0CDB7DEB7E8E0D9
:1029E0000C940935D0915302DD23B1F3809151024B
:1029F000909152020E94422D059770F310E0000F53
:102A0000111FA801B601C7010E942335892B31F09F
:102A1000A801B601C7010E943035CD2F1092530294
:102A20008C2FDBCF0E94071108950E94C32C0E94B7
:102A3000162F0E94BC100E94302F0E94F3100E949B
:102A40003D2F0E94422F0E9412150E945C2F0E946F
:102A5000E42D0E94D310F5CF9093B5018093B4017B
:102A6000089581152CE7920741F4209124033091B9
:102A70002503232B11F490E080E00895ECE8F2E0C8
:102A800090E080E06BE978E147E258E124EB37E140
:102A90007783668351874087338722879787868726
:102AA000019670968830910599F70895CF92DF923C
:102AB000EF92FF921F93CF93DF93CDB7DEB72A97A4
:102AC0000FB6F894DEBF0FBECDBFE0E0F4E080E5C6
:102AD000DF011D928A95E9F7E4E5F2E088E3DF0182
:102AE0001D928A95E9F780E0C82E84E0D82E7F01F8
:102AF00010E0F701D182C082BE016F5F7F4F812F4E
:102B00000E947522892B79F488E0FE013196D60166
:102B100001900D928A95E1F789859A85D7011396E0
:102B20009C938E931297BAE0CB0ED11CE7E0EE0E89
:102B3000F11C1F5F1830E9F62A960FB6F894DEBF35
:102B40000FBECDBFDF91CF911F91FF90EF90DF902F
:102B5000CF9008950E943E150E9456150895CF9279
:102B6000DF92FF920F931F93CF93DF93CDB7DEB722
:102B70002A970FB6F894DEBF0FBECDBF8C0160322E
:102B800069F5DC011196EC911197EE3038F5F0E023
:102B9000E854FA4C0C94D63488E0ECE1F1E0DE0124
:102BA000119601900D928A95E1F780E2F801119259
:102BB0008A95E9F786E0D8018C9311961C921197BB
:102BC00012961C92129713961C92139788E0FE019E
:102BD0003196149601900D928A95E1F72A960FB6D8
:102BE000F894DEBF0FBECDBFDF91CF911F910F9143
:102BF000FF90DF90CF90089588E1F801808381E015
:102C0000818312821382EACF13968C911397682FD7
:102C100070E0762F662712968C91860F972F911D64
:102C2000092E000CAA0BBB0B45E0880F991FAA1FA9
:102C3000BB1F4A95D1F7AC01BD01405E5F4F6F4F9E
:102C40007F4F481759076A077B0740F28831E1E058
:102C50009E07A105B10510F64931F1E05F07610556
:102C6000710520F048E151E060E070E0481B590B2D
:102C7000BC016C547E4FC8010E941A35AFCF40E2B0
:102C800050E06FEF70E00E94393580912403D80145
:102C90008C938091220311968C93119712961C921B
:102CA000129713961C92139781E014968C931497A5
:102CB00015968C9393CF81E090E0909323038093BB
:102CC000220382E390E090932103809320030E94EB
:102CD0002A2D90931F0380931E0380CF809122039F
:102CE00090912303892B91F160E080E00E94B91359
:102CF000D82E61E081E00E94B913F82E80911E0366
:102D000090911F030E94422D8536910550F1DD20E0
:102D100041F1FF2031F10E942A2D90931F038093EF
:102D20001E0380912003909121030197909321032A
:102D300080932003892B51F41092230310922203D5
:102D400081E090E0909325038093240380912403F5
:102D5000F801808380912203818380912003828304
:102D60003DCF82E390E09093210380932003EECF48
:102D7000109225031092240331CF40E250E0BC01B1
:102D800012968D919C910E94111B28CFBC016F5F00
:102D90007F4F4FE150E0FC01828193810E94411BF3
:102DA000D8018C931BCFBC016C5F7F4F4CE150E08E
:102DB000FC01828193810E945C1BF2CF0E94C11AA8
:102DC0000DCFFC018281823009F447C0E0F48823F2
:102DD000D9F1813009F002CF13968C912AE0F22EBE
:102DE000FE0131966F01DF01EF2D1D92EA95E9F7A3
:102DF000B6010E944D22D8018D93F60101900D92EB
:102E0000FA94E1F7EBCE833009F454C0843009F032
:102E1000E5CE1396FC908AE03496DE01119601907F
:102E20000D928A95E1F789859A850E9431159A87D6
:102E30008987BE016F5F7F4F8F2D0E948922F80125
:102E400080830E945615CACE80E21D928A95E9F7CA
:102E500088E0808381831282C1CE1396FC908AE041
:102E60003496DE01119601900D928A95E1F78981E1
:102E70009A810E9431159A8389838B819C810E945B
:102E800031159C838B838D819E810E9431159E8399
:102E90008D838F8198850E94311598878F83BE011D
:102EA0006F5F7F4F8F2D0E946122F80180830E9407
:102EB0003E1594CE13968C919AE0F92EFE01319630
:102EC0006F01DF01EF2D1D92EA95E9F7B6010E942F
:102ED000752291CFA6E0B0E0E0E7F7E10C94F3347F
:102EE0009093510480935004811520E2920730F4AE
:102EF0000E9479032696E2E00C940F3580EF8983D7
:102F00008A830E942A2D8160682F9C838B8349814C
:102F10005A817C8181E091E00E941505EBCFA6E00B
:102F2000B0E0E5E9F7E10C94F33490935104809319
:102F30005004811520E2920730F40E948F032696F8
:102F4000E2E00C940F3580EF89838A830E942A2D5A
:102F50008160682F9C838B8349815A817C8181E0C9
:102F600090E00E941505EBCF0F931F93CF93DF9353
:102F70008C01EB016CE073E08C2F0E944D22892BB9
:102F8000A1F48091700490917104019798F4DD2769
:102F9000CA5EDC4F8881F80112821882833029F1E1
:102FA00080F4813091F08230B9F0DF91CF911F91A0
:102FB0000F910895EFE9FFE03197F1F700C00000AD
:102FC000E4CF8430B9F0853081F780910C03909183
:102FD0000D03009751F306C080910E0390910F03EB
:102FE000009799F30E948F17E0CF80911003909182
:102FF0001103F6CF8091120390911303009791F77C
:1030000020910C0330910D0380910E0390910F03DA
:1030100021153105F1F2009729F7C901E3CFCF93CC
:10302000DF93EC010E946A17809170049091710403
:10303000019730F4CE010E948F17DF91CF91089550
:10304000EFE9FFE03197F1F700C00000F1CF0F93F7
:103050001F93CF93DF938C01EB016CE073E08C2F17
:103060000E944D22892B09F05CC0FE01FF27D80188
:1030700012968C911297EA5EFC4F8130B9F4159646
:103080009C9192FF02C080830AC090FFFCCF82E037
:10309000808380910E0390910F030097B9F4809183
:1030A0000C0390910D030097E1F110C08230B9F547
:1030B00015968C9182FD28C080FD0BC083E0808333
:1030C0008091100390911103009701F10E946A17FB
:1030D00028C084E0808380911203909113030097AD
:1030E000A9F780910C0390910D030097F9F00E94CD
:1030F0000F1880910E0390910F03009739F780917C
:103100000C0390910D03E2CF85E0808380910C0346
:1031100090910D03009729F00E940F18F0CF86E0E0
:103120008083DF91CF911F910F91089580910E03BD
:1031300090910F03B8CF0F931F93CF93DF938C0120
:10314000862F6CE073E00E944D22892BB1F4C09170
:103150000C03D0910D03209781F0F8018281833018
:1031600051F4CE010E940F18CE010E940F18CE011B
:103170000E940F1802C08430D0F7DF91CF911F91C9
:103180000F910895AAE0B0E0E8ECF8E10C94EF3478
:103190008C017B0197558F3F910509F070F4BE01BA
:1031A0006F5F7F4F802F0E944D22892B31F48985DC
:1031B0009A852A96E6E00C940B35B701C8010E9467
:1031C0008B1BF7CFCF93DF93FB012581211131C0FA
:1031D000EC01D755CF3FD10509F058F56CE073E00D
:1031E0008C2F0E944D22892B21F5CE0124E0880FDF
:1031F000991F2A95E1F7FC01E457FD4F2281213008
:10320000E1F420910C0330910D03232B91F02091D8
:103210000E0330910F03232B61F0209110033091A6
:1032200011034091120350911303242B352B232BB0
:1032300061F081E0DF91CF9108952230D1F72091A4
:10324000100330911103232BA1F3FC01EF56FD4F26
:1032500020812E7F208384579D4F0E94A928E9CF8B
:10326000E2E5F4E0848195812AE030E0B9010E9432
:10327000AE3460930D01868180930C01828580932A
:103280000B01848580930A0186859785B9010E9488
:10329000AE3460930901808980930801828980930C
:1032A00007018489809306010895B0E0A0E0EBE572
:1032B000F9E10C94EB348FEF9FEF4430510508F4A3
:1032C00069C04091EE0341FB882780F990E0880FA8
:1032D000991F42FB002700F910E0000F111F000F9B
:1032E000111F802B912B40FBCC24C0F8D12C8C29B2
:1032F0009D2943FB222720F9C22FE0E0DE2F53E077
:10330000CC0FDD1F5A95E1F78C2B9D2B44FBAA2790
:10331000A0F9B0E0E4E0AA0FBB1FEA95E1F78A2B21
:103320009B2B45FBEE27E0F9F0E0A5E0EE0FFF1F39
:10333000AA95E1F78E2B9F2B46FB222720F930E040
:10334000B6E0220F331FBA95E1F7822B932B47FB90
:10335000222720F930E03695322F222737952795FE
:10336000822B932B2091EF03322F3170F32EE82E16
:10337000F92A26952170B22EBB0CA82EBF28C501B4
:10338000BB0CAA0BBB0BFB0180839183A283B3838D
:1033900090E080E0CDB7DEB7EAE00C940735CF923D
:1033A000DF92EF92FF928FEF9FEF4430510508F4C8
:1033B0006AC0FB01C080D180E280F3800E94510688
:1033C0008091EE03C0FA80F9B701A6017695679562
:1033D0005795479540FB81F9B701A60122E0769504
:1033E0006795579547952A95D1F740FB82F9B70124
:1033F000A60133E076956795579547953A95D1F7AD
:1034000040FB83F9B701A601E4E0769567955795EF
:103410004795EA95D1F740FB84F9B701A601F5E09D
:103420007695679557954795FA95D1F740FB85F9BD
:10343000B701A601A6E07695679557954795AA9599
:10344000D1F740FB86F9B701A601B7E076956795FD
:1034500057954795BA95D1F740FB87F98093EE03CE
:103460008091EF03D0FA80F9D1FACC24C0F8C0FAE9
:1034700081F98093EF038091EE039091EF030E9416
:10348000F60F90E080E0FF90EF90DF90CF900895EE
:1034900080915204909153040E94301D0895DB01E5
:1034A000FC013296259134914217530758F0FC01E4
:1034B000349665917491A901CD010E94303590E058
:1034C00080E008958FEF9FEF08950F931F93CF93A0
:1034D000DF9302E514E0D0E0C0E0CE010E943B2281
:1034E000F80161918F01861719F0CE010E944522E3
:1034F0002196C432D10589F7DF91CF911F910F91A9
:103500000895DA019C012E5F3F4FF90145915491D6
:10351000F90125913491A217B30758F0FC013496B4
:10352000859194910E9430350E94651A90E080E068
:1035300008958FEF9FEF08950F931F93CF93DF931D
:1035400002E514E0D0E0C0E0CE010E943B22F80189
:1035500081938F012196C432D105B1F7C6EDD2E037
:10356000FE0185919491009711F0FC0109952C962C
:10357000F3E0C23DDF07A1F7DF91CF911F910F91DB
:103580000895E2E5F4E0128E138E8FEA90E09183C5
:10359000808325E0248F88E893E1938382838AE007
:1035A00090E09583848344E150E05783468348E06C
:1035B00050E051874087938782876EE170E075877E
:1035C00064879787868780E590E0918B808B538B0B
:1035D000428B48E250E0558B448B42E350E0578BDE
:1035E000468B48EC50E0518F408F158E178E168E0B
:1035F00091A380A322A30E94651A0E9451061092F3
:10360000EF031092EE03EFEEF3E08081846080839D
:103610008091EE039091EF030E94F60F0E949C1A96
:103620000895EF92FF920F931F93CF93DF937C0146
:10363000EB018A016FEF70E0CE010E9439352CEC6E
:1036400032E0A8ECB3E090E080E0AC014E5F5F4F69
:103650000417150788F0F90165917491E616F706CD
:1036600030F48C0F9D1FFC0171836083CA01245FBD
:103670003F4FA217B30749F7CDB7DEB7E6E00C948A
:103680000B359C018CEC92E0FC01A591B4912A17BA
:103690003B0741F00C96E3E0883C9E07A9F78FEFCB
:1036A0009FEF0895FC01369625913491211531053F
:1036B000B1F3F901099508950F931F93CF93DF9309
:1036C000CCECD2E0FE01259134918217930741F0B2
:1036D0002C9623E0C83CD207A9F70FEF1FEF15C0C7
:1036E000FE0138962591349121153105B1F3CE01B3
:1036F000F90109958C01892B41F4FE013A968591D7
:103700009491009711F0FC010995C801DF91CF91C8
:103710001F910F91089580916A0490916B04089510
:1037200080916F048170089580916F0486958170F7
:1037300091E08927089580916F0483FB882780F9A1
:1037400008958091680490916904089588329105E4
:1037500038F48E319105E8F40497A0F480E00895E0
:103760008933910558F48D32910510F48B97B1F798
:1037700080916D0482FB882780F908C0843691050A
:10378000B9F3ECCF80916D048295817091E0892727
:10379000089580916D0483FB882780F9F7CF80918D
:1037A0006D0485FB882780F9089580916D0486FB60
:1037B000882780F9089580910201877F8093020114
:1037C00082E00E94A20E8091020184FF06C08F7EDB
:1037D0008093020182E00E94890E8091020185FFA0
:1037E00006C08F7D8093020180E20E94890E0E94B4
:1037F000670F0895CF93DF93EC01662319F082E001
:103800000E949C0ECE0190528115904308F4DD2752
:10381000CE010E947903DF91CF9108959C0130522F
:103820002115304308F499270E948F030895FC0165
:1038300023E0F695E7952A95E1F7EE71FF27EA5D1B
:10384000FC4F20813181AC014F70552781E090E021
:1038500002C0880F991F4A95E2F7662329F0822B50
:10386000932B918380830895809590958223932351
:10387000F8CFFC0123E0F695E7952A95E1F7EE7184
:10388000FF27EA5DFC4F8F70992721E030E002C0EE
:10389000220F331F8A95E2F78081918128233923F3
:1038A00081E0232B09F480E00895B0E0A0E0EBE58F
:1038B000FCE10C94EE34EC017B01D42E8901809163
:1038C000020182FF83C020914F03309150032C17D7
:1038D0003D0719F0209709F079C0909102019B7F74
:1038E0009093020161E091FD10C08091510390918D
:1038F0005203A701481B590B61E08091030190918D
:1039000004014817590708F460E0617080910201D2
:1039100060FB81F980930201C9010E94171C0E947B
:10392000860E81FF08C080910201806180930201B0
:1039300082E00E948F0E0E94860E85FF08C0809153
:10394000020180628093020180E20E948F0E6091EA
:10395000020166956170A80180914F039091500318
:103960000E94FA1BD11014C08091700490917104D0
:10397000019728F56091020166956170A801809118
:103980004F03909150030E940E1C0E94DB1B2DC020
:10399000B80180914F03909150030E94CF1B882360
:1039A00019F3B80180914F03909150030E94D51BE9
:1039B0008111DACFCDB7DEB7E7E00C940A35EFE935
:1039C000FFE03197F1F700C00000D2CFCE010E9496
:1039D000391CA801682FCE010E940E1C80914F0354
:1039E000909150038C179D0781F2F0925203E09260
:1039F0005103E0CF80916D0480FF1EC080910201D1
:103A000082FF1AC00E942A2D209151033091520347
:103A1000AC01421B530B209103013091040142176A
:103A2000530750F026E433E041E0BC0180914F039E
:103A3000909150030E94551C089590910201892F86
:103A40008E7F90FF8160809302010E94DB1B0895AE
:103A5000809102018E7F809302010E94DB1B0895FA
:103A600090930401809303010895B0E0A0E0EBE39C
:103A7000FDE10C94ED34EC017B0180916D0480FD3F
:103A800007C011E0812FCDB7DEB7E8E00C9409350F
:103A90000E942A2D6C01F7018581882369F18091AC
:103AA000020182FF08C026E433E040E0B60190E066
:103AB00080E00E94551CC431FCE7DF07D1F0C5311E
:103AC0002CE7D20751F0C3318CE7D80741F480913D
:103AD000020181608093020102C00E941D1DCE017F
:103AE000905281159043B0F41092500310924F03FE
:103AF000C8CF0E94281DF3CF809102018F7EC13E66
:103B0000D10531F0C53ED105B9F5809102018F7D17
:103B1000809302018091020180FFB3CFB701CE01F3
:103B20000E94A61BF7011581882309F4AFC0112359
:103B300009F4A5C00E94860E182F0E94AC0E812B9E
:103B40008D7F01F11092500310924F0380916D040C
:103B500081FD18C060E0CE010E94171CA70160E043
:103B6000CE010E94FA1B0E94AC0E8D7F0E94FF0EB8
:103B700082E00E94960F59C0CE0190528115904369
:103B800048F67FCF89E0F701A6E4B3E001900D92FB
:103B90008A95E1F7109249031092480380914F03F0
:103BA00090915003C817D90709F04AC0B701CE0158
:103BB0000E94CF1B882309F443C08091020181FD3C
:103BC00036C080915103909152038601081B190B56
:103BD000B70180914F03909150030E94C2180817BB
:103BE000190770F50E94860E81FF08C080910201BE
:103BF00080618093020182E00E948F0E0E94860EF7
:103C000085FF08C08091020180628093020180E2FA
:103C10000E948F0E6091020166956170A7018091EC
:103C20004F03909150030E94FA1B10E02BCFB70175
:103C300080914F03909150030E94D51B8111C1CFF9
:103C40000E94860E182F0E94AC0E812B90910201CB
:103C500081FB91F9909302010E94AC0E8D7F0E942E
:103C6000FF0ED0935003C0934F03D0925203C092E3
:103C700051038091020184608093020179CF970102
:103C800040E0B601CE010E94551CFCCE11112CCF94
:103C9000F8CE0E94D40F089580E00E94CF13817067
:103CA00008950E949B142FEF86E791E021508040F9
:103CB0009040E1F700C000000E949B140E944C1E3F
:103CC000882321F00E94491E0E94752D08950E94AC
:103CD000511E08950895EF92FF920F931F93CF9373
:103CE000DF938091C603882361F0E09153038DE058
:103CF000F82E8091C603E81748F01092C603109280
:103D00005303CDB7DEB7E6E00C940B35EE24E39415
:103D1000EE0EE0925303CE2FD0E0EF9DF001112480
:103D2000E25AFC4F84818823B1F087819085892BEA
:103D3000A1F4818592858F3F980779F061E00E9418
:103D40006A1EFC9EF001FD9EF00D1124E25AFC4F0C
:103D500014820E94A90EEE2DCCCF00811181228108
:103D60003381448155816681778180850E94B50DBC
:103D7000E8CF08951092C8031092C703E4E5F2E07B
:103D80008581811102C014821682379682E0EC3858
:103D9000F807B1F70895DC0160915C0380915D0341
:103DA000962F891301C00895292F30E0F901EE0FF5
:103DB000FF1FEC5AFC4F408151814A175B07A1F469
:103DC00087E08A9FA0018B9F500D11244C5A5D4FB4
:103DD00081E0FA0184839613E6CF2F5F3F4F237073
:103DE000332720935C0308952F5F3F4F922F9370EA
:103DF000D8CF6F927F929F92AF92BF92CF92DF9275
:103E0000EF92FF920F931F93CF93DF93DB011496F2
:103E10002C911497211157C0A090C603EEE5F3E052
:103E200030E020E0B12C66246394712C2A1508F050
:103E300048C0C384D484ED90FC9011976FEF7FEF5E
:103E4000912C492D50E08A01000F111F0E0D1F1DEE
:103E5000E801088119810115110531F0C016D1065C
:103E600009F4BA019394EDCF6F3F7607D9F1E301DE
:103E700002C0CC0FDD1F6A95E2F7BC2AB30102C075
:103E8000660F771F9A94E2F7AB0141505109B416BF
:103E9000150639F512964D915C9113976DE0629F6E
:103EA000F001639FF00D1124E25AFC4F50874783C5
:103EB00024E02483108211829287818721E0159665
:103EC0002C930E94CB1EDF91CF911F910F91FF90F9
:103ED000EF90DF90CF90BF90AF909F907F906F90CA
:103EE000089514822F5F3F4F3D96A0CF1F93CF932D
:103EF000DF93C0915C0317E080915D038C1308C0D1
:103F00000E946B1E0E94BA1EDF91CF911F910895EF
:103F1000D0E0FE01EE0FFF1FEC5AFC4F8081918133
:103F2000189FB001199F700D11246C5A7D4F0E948B
:103F3000F91E2196C370E0CF0F931F93CF93DF93A9
:103F4000DC012D913C91119740E090E080E0E82F5A
:103F5000F0E0EE0FFF1FE20FF31FC081D181209729
:103F6000B9F0FB010081118190E005C0CE17DF0799
:103F700009F441E09F5FE92FF0E0EE0FFF1FE00F33
:103F8000F11F0190F081E02D309781F78F5FDFCF37
:103F9000442349F0981708F4DB01CD01DF91CF915C
:103FA0001F910F910895B0E0A0E0F7CF8091050137
:103FB000882341F18091C9039091CA03009711F1C0
:103FC0000E94422D2091C7033091C803281739075A
:103FD000C8F490915C0380915D03981759F00E949A
:103FE000761F1092C8031092C7031092CA03109252
:103FF000C90308950E946B1E1092CA031092C90350
:104000000E94BA1E08951092CA031092C90310921A
:10401000050180915D0380935C030E94BA1E0E949B
:104020006B1E089580910501882319F00E940320DA
:10403000089581E0809305010895ADE0B0E0E3E2EA
:10404000F0E20C94E3344C016B0180352CE79207CD
:1040500061F4FB0115811123E9F081E080930501F2
:10406000812F2D96E2E10C94FF348135FCE79F0708
:1040700039F4FB011581112369F00E940320F0CF70
:1040800082359C4739F4FB011581112319F00E94F8
:104090001220E6CF9091D0018091D101892B0E940E
:1040A000BB04182F0E94B91E181731F0F601608169
:1040B00071810E949E124C0164E5E62E62E0F62EAC
:1040C000B12CA12C1D8666246394712CCE0101961F
:1040D0009B878A87F7012081318144244A94542C9C
:1040E000212C822D90E0FC01EE0FFF1FE20FF31F49
:1040F000408151814115510531F08416950609F42E
:104100002C012394EECF312CFFEF4F165F0609F4FC
:104110004CC0F701448130900501832D411180E0AE
:10412000F82FF1703F2EF6018581882309F4D6C05F
:10413000332009F4D3C0B701C5010E94A11B8C0133
:10414000F7018581811114C09301042C01C0220F55
:104150000A94EAF78681822B86838091C703909127
:10416000C8038017910720F41093C8030093C70376
:10417000C301022C02C0880F991F0A94E2F701972D
:10418000F70126812817190681F48091C9039091BF
:10419000CA03009709F44FC00E94422D081719075F
:1041A00008F049C021E0F7012483FD85F329FD874C
:1041B0002FEFA21AB20A87E0E80EF11C98E0A916C8
:1041C000B10409F087CFF6018581882309F4F1C095
:1041D000FD85FF2309F4EDC00E942A2D9093CA03A8
:1041E0008093C9038091C603883008F591E0980F49
:1041F0009093C60399E0F601DE01119601900D92AD
:104200009A95E1F72DE0829FC0011124825A9C4FBC
:1042100029E0FE013196DC0101900D922A95E1F72B
:104220002FEF3FEFFC01328721879486838611E0D0
:10423000FD851F2715CF20905C0380915D038C873F
:1042400090E080E02C85221216C08E159F0509F49F
:10425000ACCF422C512CF201EE0FFF1FEC5AFC4F59
:10426000B182A0828FEF481A580A93E04922552460
:1042700040925D039ACF422C512CF201EE0FFF1FAA
:10428000EC5AFC4F80819181E7E0E89F8001E99F33
:10429000100D11240C5A1D4FB701C8010E949C1F1C
:1042A0000097A9F021E0FC0124838E159F0509F4F5
:1042B0007CCF20915C0322120AC08017910739F449
:1042C00092012F5F3F4F2370332720935C03EFEF62
:1042D0004E1A5E0AF42DF3702F2EB4CFF701F5813C
:1042E000FC87F701868190E0FC85F11120C09301E5
:1042F000022C02C0220F331F0A94E2F72150310929
:104300002817390731F4442309F451C0C5010E942C
:10431000CB1EC301042C01C0880F0A94EAF7982F22
:104320009095F7018681892386833C843ECFAC013A
:10433000042C02C0559547950A94E2F7BA016170C2
:1043400077279C012150310982239323892B59F52A
:10435000672B49F1F70182819381892BF9F0EA8576
:10436000FB8527E011922A95E9F70E942A2D282F34
:104370008B839C8384E08D83F70182819381782FE6
:104380008887998709811A813C8144E05E816F8129
:10439000892F0E94B50DF7011582BBCF60E0C501E2
:1043A0000E946A1EF8CFF42FF170FC87B2CF3C86D2
:1043B000B0CF90915C0380915D03981719F00E9433
:1043C000761F35CF0E946B1E1092CA031092C9034C
:1043D0000E94BA1E2CCF84E0089550E0440F551F70
:1043E00096E1699F400D511D112498E5899F400D6C
:1043F000511D1124CA01889608950F931F93CF93DE
:10440000DF938430C8F46430B8F44B30A8F40E94D1
:10441000ED218C010E945035C82FD0E0DC2FCC2735
:10442000C80101960E9450359E01282BC901DF91D9
:10443000CF911F910F91089590E080E0F8CF0F93F6
:104440001F93CF93DF93122F032F843078F46430BF
:1044500068F44B3058F40E94ED21EC01602F0E946B
:104460006E35612FCE0101960E946E35DF91CF919E
:104470001F910F9108958432910528F488579E4F1B
:104480000E945035089580E008958432910520F40B
:1044900088579E4F0E946E3508959B01883070F4B6
:1044A0009AE0899FB001112464557E4F4AE050E0A4
:1044B000C9010E94403590E080E008958FEF9FEFA2
:1044C00008959B01883070F49AE0899FB00111240F
:1044D00064557E4F4AE050E0C9010E94923590E059
:1044E00080E008958FEF9FEF08959B01883070F46E
:1044F0009AE0899FB001112464507E4F4AE050E059
:10450000C9010E94403590E080E008958FEF9FEF51
:1045100008959B01883070F49AE0899FB0011124BE
:1045200064507E4F4AE050E0C9010E94923590E00D
:1045300080E008958FEF9FEF0895A4E1B0E0E3EAF3
:10454000F2E20C94ED34C0902403D090250381E076
:1045500090E0909325038093240300E010E012C0C4
:104560004F2D612F802F0E9422039C014F2D612F20
:10457000802F0E941F22F3948BE0F812F1CF1F5F6F
:10458000143011F0F12CECCF0F5F043039F70E949A
:10459000C11A1C861B861E861D86188A1F861A8ACB
:1045A000198A88EC90E09C8B8B8B10E0BE01655FD4
:1045B0007F4F812F0E9461221F5F1830B9F7FE01E3
:1045C00031967F018AE011928A95E9F710E0B701F0
:1045D000812F0E9489221F5F1830C9F7D0922503CE
:1045E000C09224036496E8E00C940935EF92FF92A0
:1045F0000F931F93CF93DF93EC018A017C01E60EAA
:10460000F71ECE018896CE15DF0529F4CDB7DEB7AB
:10461000E6E00C940B35C03621E0D20740F40E944E
:104620005035F80180830F5F1F4F2196EACFF801C4
:104630001082F9CFB0E0A0E0E0E2F3E20C94E534C0
:10464000EC017B018A0180369140D8F480E691E04C
:104650008C1B9D0B86179707A0F03E0138E2630E76
:10466000711C80912403909125032E01460E571E44
:10467000892B61F07E01C7018896E414F50409F0E6
:1046800043C0CDB7DEB7E0E10C9401356E0181E0A7
:10469000C822DD24C0FF0FC0CE0187960E9450358E
:1046A000F801908189279827892781159C4719F45B
:1046B0008FEFF8018083570140FE13C0F1E0AF1A7D
:1046C000B10848018A0C9B1CC3018E0D9F1D0E94DE
:1046D0005035F401908181159C4719F48FEFF40156
:1046E0008083F801EC0DFD1D2FEFCA14DB0410F6DA
:1046F0009081818181159C4711F42083218382E080
:10470000C80ED11C3296F1CFE0E6EE16E1E0FE06CF
:1047100040F4F701EC1BFD0BE00FF11F60810E94DC
:104720006E35FFEFEF1AFF0AA6CF843038F46430FD
:1047300028F44B3018F40E94FD21089590E080E0A9
:10474000089580E1089584EB91E00895EF92FF923F
:104750000F931F93CF93DF93EC018A017C01E60E48
:10476000F71ECE01845B9D4FCE15DF0529F4CDB732
:10477000DEB7E6E00C940B35C43B21E0D20740F4F1
:104780000E945035F80180830F5F1F4F2196E9CFBB
:10479000F8011082F9CFB0E0A0E0E1EDF3E20C9473
:1047A000ED347C016A018C01060F171FEC01CE016C
:1047B000845B9D4FC017D10729F4CDB7DEB7E8E081
:1047C0000C940935C43B21E0D20740F4FE01EE19F8
:1047D000FF09EC0DFD1D60810E946E352196E7CF2B
:1047E000CF93DF93CCE4D2E060E0CE010E946E353F
:1047F0002196C11584E0D807B9F7DF91CF910895CC
:10480000A4E0B0E0E6E0F4E20C94E634F82E2FE009
:10481000281708F4B1C08FEF93E00E945035811142
:10482000ABC00CE412E0F11039C034E0C32ECE016D
:1048300001965C0155245A94F5012C2D11922A956C
:10484000E9F778014FEFE41AF40AC8010E945035E5
:104850008983882309F490C0813009F088C0480119
:1048600052E0850E911CC7010E945035D82E8A83D4
:10487000882309F481C08FEF8D0D8330E8F478012F
:1048800083E0E80EF11CC4010E9450358B8388231D
:1048900019F0C5010E9486288701CECF011544E09A
:1048A000140709F469C0C8010E945035811101C084
:1048B000FA940F5F1F4FB7CF8BEF8D0D833060F5EC
:1048C000380193E0690E711CC4010E9450358B833E
:1048D0007301882309F37801E4E0EE0EF11CC301B3
:1048E0000E9450358C838823B9F28B819C81813062
:1048F000FFEF9F0710F0982F882726E0D21631F09F
:1049000047E0D41631F00E940F18C6CF0E946A17F4
:10491000C3CF0E948F17C0CF54E07401D512BCCF13
:10492000C4010E945035D82E780184E0E80EF11CB5
:10493000C80103960E945035DD20F1F08823E1F094
:10494000E82FE150FF0B5E9EC0015F9E900D112489
:104950004D2D4150550B840F951F019708F49CCFA6
:10496000EFE9FFE03197F1F700C00000F6CF60E01B
:10497000C5010E941B2890CF2496EFE00C940235CD
:10498000282F35EB2303C001112497FF04C0805862
:104990009109892F089580589F4FFBCF8091D103B3
:1049A00060915A0470915B0480FF16C020910B0146
:1049B000269FC001279F900D1124BC017695679515
:1049C000769567956038710508F043C061157105EB
:1049D00009F441C0862F089581FF0BC020910B017F
:1049E000269FC001279F900D1124BC0176956795E5
:1049F000E9CF82FF09C080910B019B01829FB0012A
:104A0000839F700D1124DECF2091D0032223D1F299
:104A100090910A0180910B01482F50E0291748F02E
:104A2000CB01849FB001859F700D949F700D112460
:104A3000C9CF289F90011124269FA001279F500DC8
:104A4000369F500D1124692F70E0CA010E94AE34C8
:104A5000B9CF8FE7089581E008958091D10380FF59
:104A60000CC06091070170E0759567957595679525
:104A70006115710549F1862F089581FF06C0609187
:104A8000070170E075956795F3CF6091070182FD8E
:104A90000BC09091CF039923A1F060910601809102
:104AA0000701961738F0682F70E06038710500F341
:104AB0008FE70895899FC001112470E00E94C234DD
:104AC000F4CF61E070E0D7CF81E008959091D403F6
:104AD0002091D503922B2091D703922B2091D603BE
:104AE000922B31F098E09093D00391E09093CF0314
:104AF0008D3C31F40E94CE2481958093D503089596
:104B00008E3C19F40E94CE24F8CF8F3C31F40E94E1
:104B1000CE2481958093D4030895803D19F40E949A
:104B2000CE24F8CF893D29F40E942D258093D60309
:104B300008958A3D21F40E942D258195F7CF8B3D64
:104B400031F40E942D2581958093D70308958C3DE3
:104B500019F40E942D25F8CF9FE2980F983070F439
:104B6000815D990B21E030E001C0220F8A95EAF7C0
:104B70008091D303822B8093D30308958D3D31F42C
:104B80008091D10381608093D10308958E3D21F4FB
:104B90008091D1038260F7CF8F3DB9F78091D10327
:104BA0008460F1CF4091D4038D3C59F48091D503BA
:104BB00087FF0DC01092D50341110BC01092D00396
:104BC00008C08E3C81F48091D50318169CF34423D1
:104BD00081F08091D6039091D703892B09F05AC0B8
:104BE0001092CF0308958F3C49F447FFF0CF109205
:104BF000D4038091D5038111ECCFE0CF803D19F42F
:104C00001416ACF3E4CF9091D603893D29F419161C
:104C1000F4F61092D603DBCF8A3D19F497FFD7CF75
:104C2000F8CF9091D7038B3D29F497FFD0CF109206
:104C3000D703CDCF8C3D19F41916CCF3C8CF9FE222
:104C4000980F983090F4815D990B21E030E0B90124
:104C500002C0660F771F8A95E2F7CB01809590918D
:104C6000D30389238093D303B2CF8D3D31F4809158
:104C7000D1038E7F8093D103AACF8E3D21F4809102
:104C8000D1038D7FF7CF8F3D09F0A1CF8091D10364
:104C90008B7FF0CF08950E942A2D9C019091D40320
:104CA0008091D503982B21F03093CE032093CD0330
:104CB0009091D6038091D703982B21F03093CC03A9
:104CC0002093CB0382ED93E00E94942B089586E01D
:104CD000E2EDF3E0DF011D928A95E9F71092D0032F
:104CE0001092CF031092D1030895FC0182818111AB
:104CF0000EC0838181110BC08481811108C091E0B5
:104D00008581811101C090E0892F8170089581E033
:104D1000FCCFA6E0B0E0EFE8F6E20C94F23486E0D7
:104D2000E2EDF3E0DE01119601900D928A95E1F734
:104D30001092D4031092D5031092D6031092D70389
:104D40008B819C81892B89F08091CD039091CE033A
:104D50000E94422DAC019091D0039923C9F180911A
:104D60000C018417150608F440C08D819E81892BA3
:104D700091F08091CB039091CC030E94422DAC0125
:104D80009091CF03992309F46AC080910801841798
:104D9000150608F472C0BE016F5F7F4F82ED93E08D
:104DA0000E94572C811105C082ED93E00E94752668
:104DB00081110E944B2686E0FE013196A2EDB3E000
:104DC00001900D928A95E1F72696E3E00C940E355A
:104DD00020910D018AE0289F9001112424173507A6
:104DE00020F69F5F9093D00302C09F3FD1F71B81B5
:104DF000112359F00E94CE249FEF11160CF491E07C
:104E0000899F802D11248093D4031C81112359F094
:104E10000E94CE249FEF11160CF491E0899F802D03
:104E200011248093D5038091D403882309F49DCF66
:104E30001091D503112309F498CF0E94C024882330
:104E400051F08093D403812F0E94C024882329F03D
:104E50008093D5038ACF81E0F4CF81E0F9CF209110
:104E600009018AE0289F900111242417350708F0D2
:104E700092CF9F5F9093CF0302C09F3FD1F71D81D8
:104E8000112359F00E942D259FEF11160CF491E08B
:104E9000899F802D11248093D6031E81112359F000
:104EA0000E942D259FEF11160CF491E0899F802D13
:104EB00011248093D7038091D603882309F46BCF04
:104EC0001091D703112309F466CF0E94C0248823D0
:104ED00051F08093D603812F0E94C024882329F0AB
:104EE0008093D70358CF81E0F4CF81E0F9CFB0E0D1
:104EF000A0E0EDE7F7E20C94EC34E82FF0E0E853A3
:104F0000FC4FB490282F26952695269530E0F90180
:104F1000E859FB4F0491877010E0082E02C01595E8
:104F200007950A94E2F701701127F901E85AFB4F3F
:104F3000E490F12C082E02C0F594E7940A94E2F76D
:104F400091E0E922FF24F901E85BFB4FC491D0E036
:104F500002C0D595C7958A95E2F7C170DD27C62EA8
:104F6000D12C0115110549F5E114F10431F086EE5B
:104F70000E947E05C601009771F5B6018B2D0E9437
:104F8000FA05C601009779F5E114F104A1F50115C0
:104F9000110531F081EE0E94C705C6010097C9F5E1
:104FA000CD2B31F08CE20E941206C114D104C9F558
:104FB000CDB7DEB7E9E00C94083581EE0E947E059E
:104FC000C601009789F2EFE9FFE03197F1F700C0E1
:104FD00000000197F6CFEFE9FFE03197F1F700C04D
:104FE00000000197C8CFEFE9FFE03197F1F700C06B
:104FF00000000197C7CF86EE0E94C705C601009743
:1050000031F2EFE9FFE03197F1F700C000000197BE
:10501000F6CFEFE9FFE03197F1F700C0000001970C
:10502000BDCF8FE99FE00197F1F700C0000091E04C
:10503000C91AD108BACFEF92FF920F931F93CF9363
:10504000DF93EC01162F0AE08881882309F459C008
:10505000813009F052C08981813071F47E0182E093
:10506000E80EF11C8A810E941206E701812F90E070
:105070000097D9F52196E8CF823041F47E01E2E035
:10508000EE0EF11C8A810E947E05EFCF833041F441
:105090007E01F2E0EF0EF11C8A810E94C705E5CF88
:1050A000843011F02196E2CF2A81229690E080E0B0
:1050B000AE014F5F5F4F2053330B2A30310550F064
:1050C0000097A1F2EFE9FFE03197F1F700C000008F
:1050D0000197F6CF089FB001099F700D1124C901F7
:1050E000860F971F2981EA01E3CFEFE9FFE03197AF
:1050F000F1F700C000000197BBCF612F0E94772716
:10510000B9CFCDB7DEB7E6E00C940B3560E00E9476
:105110001B2808954115510511F0FA0109950895CC
:10512000CF93DF93EC014A855B856E857F850E9476
:105130008A288B810E94A20E8C810E948F0E0E9471
:10514000670F86E0FE0111928A95E9F7DF91CF9112
:105150000895CF93DF93EC018D8181FD11C08260B2
:105160008D838B810E949C0E8C810E94890E0E94EF
:10517000670F488559856E857F85CE010E948A28F4
:105180001092DB031092DA038D8180FD03C0CE0103
:105190000E949028DF91CF910895CF93FB01C581A4
:1051A000CC23F1F0E091DA03F091DB033097D9F0F2
:1051B000E817F907C1F0FF2724E0EE0FFF1F2A953B
:1051C000E1F7DF01AF56BD4F2C9124602C93E457DB
:1051D000FD4F91838083CF010E94A9280E94A90ED0
:1051E0008C2FCF910895C0E0FBCF0F931F93CF93E7
:1051F000DF938C0197558F3F910509F0C8F5C801E1
:10520000992724E0880F991F2A95E1F7EC01C457EC
:10521000DD4FFB012581FC01EF56FD4F808120FB16
:1052200080F98083222351F10E942A2D9093D90383
:105230008093D8038A818F5F8A830E94860E8B8336
:105240000E94990E9B81892B8B830E94AC0E8C83CC
:105250004E815F816E857F85CE010E948A288D8177
:1052600081FF02C010E000E01093DB030093DA033B
:1052700081E0DF91CF911F910F9108954C855D855D
:105280006E857F85CE010E948A288D8181FFF0CFB7
:10529000CE010E9490288091DA039091DB03801761
:1052A000910731F71092DB031092DA03E1CFA9E006
:1052B000B0E0EDE5F9E20C94F1348091DA039091DD
:1052C000DB03892B61F18091D8039091D9030E946F
:1052D000422D8C01BE016F5F7F4F89E0FB0111926F
:1052E0008A95E9F78091DA039091DB030E94C21856
:1052F00080179107A0F48091DA039091DB0399273E
:1053000024E0880F991F2A95E1F7FC01EF56FD4F25
:10531000208122FD04C084579D4F0E94A928299610
:10532000E4E00C940D351F93CF93DF9387372CE780
:10533000920759F0C1E088379C47E1F4FB01C58131
:10534000CC2371F10E94D62906C0FB01C581CC2374
:10535000B1F00E94D3290E9468090E94D929D82F50
:105360000E94D629C82F0E94D3294D2F6C2F0E944E
:10537000900AC0E08C2FDF91CF911F9108950E9479
:10538000D3290E9474090E94D929182F0E94D62976
:10539000D82F0E94D329412F6D2F0E94900AEACF67
:1053A0000E94D629EECF80911001089580910F01BF
:1053B000089580910E01089584E290E00E94503596
:1053C000813289F485E290E00E945035863C59F4A0
:1053D00086E290E00E94503591E08A3D09F090E02D
:1053E000892F8170089580E0FCCFCF93C82F6FEF95
:1053F000811161E284E290E00E946E356FEFC1118D
:1054000066EC85E290E00E946E356FEFC1116AEDA7
:1054100086E290E00E946E35CF910895089587E26C
:1054200090E00E945035682F70E090E080E0089591
:105430000895CF93C62F0E94182A6C2F87E290E020
:105440000E946E35CF91089580E00E94F52960E0BA
:1054500070E0CB010E94192A0E949D220E94F02335
:1054600081E00E94F52908950E940E2A0E940F2AC9
:105470000E94182A0E94DC29811102C00E94242A5D
:1054800008959C01FB018581882351F0A90157579C
:105490004038510530F4822F0E94002480E00895A6
:1054A00081E008952FEFFC0120830895EF92FF9291
:1054B0000F931F93CF93DF93EC01162F88812091D8
:1054C000220330912303232B79F08E3F09F05CC037
:1054D0008981833020F08550833008F055C0612FDA
:1054E000CE010E94AF1550C08B3009F4EAC0D0F451
:1054F000843009F488C060F4823009F44EC008F0AA
:1055000075C08130F1F1612FCE010E94522A3CC05A
:10551000863009F48EC008F481C08A30A0F78FEF7E
:10552000888332C0803109F4A4C000F58D3009F4BD
:1055300087C008F481C08E3009F48AC08F3019F713
:105540008091240390912503892BF1F06B8170E009
:105550006D317105C8F489819A81AE014C5F5F4F4E
:105560009827892798270E94CB230EC0823109F4FF
:1055700086C008F481C0833109F492C08E3F19F6C9
:10558000AECF198289E08A83612FCE010E94DB2D84
:10559000CDB7DEB7E6E00C940B358981823071F02F
:1055A000833079F0813009F0AECF0E94362D0E9411
:1055B000DC346A837B838C839D83E6CF0E940F2A31
:1055C000F6CF8091240390912503892BE9F27E0187
:1055D00000E0802F0E94CF13F701928383830F5F37
:1055E000F2E0EF0EF11C0430A1F7CECF89818230BA
:1055F00009F089CF6A817B818C819D810E94DC3496
:105600000E94192AC1CF4B816A8189810E94FD21A4
:105610009827892798279D838C83B6CF2C813D813D
:105620003227232732274B816A8189810E941F22DA
:10563000ABCF0E949D22A8CF0E94A1238983A4CF33
:105640000E94A3239827892798279A8389839CCF30
:105650006B8170E06D31710508F096CF89819A8178
:10566000AE014C5F5F4F9827892798270E94A62399
:105670008BCF0E94F02388CF0E94EB21DFCF6B817C
:1056800070E06D31710508F07FCF89819A81AE019C
:105690004C5F5F4F9827892798270E94F62274CF86
:1056A0006B8170E06D31710508F06ECF89819A8150
:1056B000AE014C5F5F4F9827892798270E941A23D5
:1056C00063CF8091240390912503892B09F45CCF4B
:1056D000CE010E94DB2D2FEF81EE94E0215080401F
:1056E0009040E1F700C000000E94752D4DCF9093CF
:1056F000E1038093E0030895E091E003F091E1037A
:10570000309729F00190F081E02D0995089580E00F
:105710000895E091E003F091E103309721F00280D9
:10572000F381E02D09950895E091E003F091E10304
:10573000309739F022E0DC012C930680F781E02DD0
:1057400009950895A3E0B0E0E8EAFBE20C94F33495
:105750002091DE033091DF0328173907A1F09093E1
:10576000DF038093DE03E091E003F091E1033097E3
:1057700051F023E029839B838A830084F185E02D07
:10578000CE01019609952396E2E00C940F35A3E033
:10579000B0E0EDECFBE20C94F3342091DC033091AB
:1057A000DD0328173907A1F09093DD038093DC0314
:1057B000E091E003F091E103309751F024E0298378
:1057C0009B838A830084F185E02DCE0101960995A3
:1057D0002396E2E00C940F354091000150910101B5
:1057E0009A012E5F3F4F485F5F4F80E024173507D7
:1057F00009F40895F90191919F019923B9F38F5FFD
:10580000F5CF882371F02091000130910101F90159
:105810003296285F3F4F9191981729F0E217F307CE
:10582000D1F780E0089581E008959C01FC01329653
:105830009FEF80E04191461751F09F3F19F44111CD
:1058400001C0982F8F5F8630A9F79F3F09F4089514
:10585000290F311D97FD3A95F90162830895FC01E6
:10586000329608962191261303C0DF0111971C92EE
:10587000E817F907B9F70895682F80910001909112
:1058800001010E94152C0895682F809100019091CC
:1058900001010E942F2C0895E0910001F091010177
:1058A000329686E0DF011D928A95E9F70895DC01C2
:1058B000FB0111969C9111978181981322C0129639
:1058C0008C911297882319F0928189131AC013962C
:1058D0008C911397882319F09381891312C0159620
:1058E0008C911597882319F0958189130AC0149615
:1058F0009C91992321F081E02481291303C080E049
:1059000001C081E08170089508950E94842C08955B
:10591000811106C081E08093E2030E94852C0895E6
:1059200082E0F9CF83E08093E2030E94852C089502
:105930000E94882C089581E08093E2030E94852CC8
:1059400008950E949B2C0895089508950E94A52C07
:105950000895089508950E94A42C0895CF930E945D
:10596000A92C0E949B140E94AA2CC0E08C2F0E949C
:10597000CF13892B31F4CF5FC430C1F780E0CF91D2
:10598000089581E0FCCF85B7806885BF85B78068C2
:1059900085BF08951F921FB61F9211248F939F9366
:1059A000AF93BF938091E303811113C0809176047C
:1059B00090917704A0917804B09179044196A11D4B
:1059C000B11D8093760490937704A0937804B093EC
:1059D0007904BF91AF919F918F911F901FBE1F902F
:1059E000189580917E04843031F10E94B1041092A8
:1059F000E30388E190E020E40FB6F894A895809343
:105A000060000FBE2093600083B7817F846083BFF6
:105A100083B7816083BF7894889583B78E7F83BF77
:105A20000FB6F894A895809160008861809360001B
:105A3000109260000FBE08950E9451060E94B604A5
:105A4000089582E084BD93E095BD9AEF97BD809361
:105A50006E0008952FB7F8948091760490917704A2
:105A6000A0917804B09179042FBF08952FB7F894CE
:105A70006091760470917704809178049091790414
:105A80002FBF08959C014FB7F894809176049091B0
:105A90007704A0917804B09179044FBF821B930BD7
:105AA000089578941F921FB61F9211248F939F938D
:105AB000AF93BF938091760490917704A09178047E
:105AC000B09179040196A11DB11D80937604909345
:105AD0007704A0937804B0937904BF91AF919F911C
